:100000000C9461000C9473000C9473000C947300B6
:100010000C9473000C9473000C9473000C94730094
:100020000C9473000C9473000C9473000C94730084
:100030000C9473000C9473000C9473000C94730074
:100040000C94C9000C9473000C9473000C9473000E
:100050000C9473000C9473000C9473000C94730054
:100060000C9473000C94730000000000240027001F
:100070002A000000000023002600290000000000E4
:10008000250028002B0004040404040404040202D4
:100090000202020203030303030301020408102007
:1000A0004080010204081020010204081020000012
:1000B0000008000201000003040700000000000027
:1000C000000011241FBECFEFD8E0DEBFCDBF21E07E
:1000D000A0E0B1E001C01D92A431B207E1F70E9497
:1000E00013010C944E020C940000833081F028F42C
:1000F000813099F08230A9F008958730A9F08830D6
:10010000C9F08430B1F4809180008F7D03C080916C
:1001100080008F7780938000089584B58F7784BDA9
:10012000089584B58F7DFBCF8091B0008F77809349
:10013000B00008958091B0008F7DF9CF1F93CF93C9
:10014000DF93E8EBF0E09491E4EAF0E0D491E0E9A9
:10015000F0E0C491CC23B9F0182F992319F0892F1E
:100160000E947500EC2FF0E0EE0FFF1FE458FF4FE8
:10017000A591B4918FB7F894EC91111108C0D09566
:10018000DE23DC938FBFDF91CF911F910895DE2B8B
:10019000F8CF1F920F920FB60F9211242F933F9317
:1001A0008F939F93AF93BF93809110019091110112
:1001B000A0911201B091130130910F0123E0230FA0
:1001C0002D3758F50196A11DB11D20930F01809385
:1001D000100190931101A0931201B093130180912B
:1001E0000B0190910C01A0910D01B0910E010196AF
:1001F000A11DB11D80930B0190930C01A0930D01E3
:10020000B0930E01BF91AF919F918F913F912F912C
:100210000F900FBE0F901F90189526E8230F02969F
:10022000A11DB11DD2CF789484B5826084BD84B500
:10023000816084BD85B5826085BD85B5816085BDE1
:1002400080916E00816080936E0010928100809199
:100250008100826080938100809181008160809321
:100260008100809180008160809380008091B10046
:1002700084608093B1008091B00081608093B00071
:1002800080917A00846080937A0080917A00826005
:1002900080937A0080917A00816080937A008091C7
:1002A0007A00806880937A001092C100CAE9D0E099
:1002B000FE01249106E810E0F80184918823C9F03A
:1002C00090E0880F991FFC01E859FF4FA591B49168
:1002D000FC01E458FF4F459154913FB7F8949C912D
:1002E000822F809598239C93FA01908189238083A3
:1002F0003FBFE4EAF0E02491E0E9F0E08491882354
:1003000099F090E0880F991FFC01E859FF4FA591E3
:10031000B491FC01E458FF4F859194918FB7F89404
:10032000EC91E22BEC938FBF9EEAE92E90E0F92E40
:1003300020E0C22E20E0D22EAA24A394F7018491BB
:10034000FE01B490F801949091102CC080910901A5
:1003500090910A01009709F06AC02FB7F894809134
:10036000100190911101A0911201B09113012FBFC2
:100370008093050190930601A0930701B0930801B3
:100380008093010190930201A0930301B0930401B3
:100390008091090190910A01019690930A0180933E
:1003A00009010FC081110E947500E92DF0E0EE0FE8
:1003B000FF1FEE58FF4FA591B4918C91B82209F41C
:1003C000C5CF2FB7F8948091100190911101A091A1
:1003D0001201B09113012FBF409101015091020110
:1003E0006091030170910401841B950BA60BB70B60
:1003F00080399140A105B10598F080910901909153
:100400000A01029749F480910001811143C0A09232
:10041000000181E00E949E0010920A0110920901E1
:10042000C114D10409F48ACF0E94000087CF1816A6
:1004300019063CF62FB7F8948091100190911101A4
:10044000A0911201B09113012FBF4091050150916D
:1004500006016091070170910801841B950BA60BA2
:10046000B70BC297A105B10508F4ABCF2FB7F8942D
:100470008091100190911101A0911201B09113018E
:100480002FBF8093050190930601A0930701B093BD
:1004900008017ECF1092000180E0BCCFF894FFCF1E
:00000001FF
